:020000040800F2
:10000000E00A0020690200082D1A000809160008FD
:10001000291A000845070008B9220008000000005E
:100020000000000000000000000000009D22000809
:100030004907000800000000311A0008A12200084A
:10004000830200088302000883020008830200087C
:10005000830200088302000883020008830200086C
:10006000830200088302000883020008830200085C
:10007000830200088302000883020008830200084C
:1000800083020008830200088302000800000000C9
:1000900000000000000000000000000083020008D3
:1000A000830200088302000883020008830200081C
:1000B000830200088302000883020008830200080C
:1000C00083020008830200088302000883020008FC
:1000D0008302000883020008830200080000000079
:1000E0008302000883020008830200080000000069
:1000F0000000000000000000000000008302000873
:100100000000000083020008830200088302000848
:1001100000000000000000000000000000000000DF
:10012000830200088302000883020008830200089B
:100130008302000800000000000000000000000032
:100140000000000000000000000000008302000822
:10015000830200088302000883020008830200086B
:100160008302000883020008000000000000000075
:10017000000000000000000000000000000000007F
:1001800000000000830200080000000000000000E2
:100190008302000800F002F800F057F814A696E871
:1001A000000CB244B344DA4501D100F04EF8BAE88D
:1001B0000F000FA696E83000A5EB040504EB060738
:1001C000AAEB0704A7F101074FEA15154FEA34140B
:1001D000A4F10104AC4201D300F037F813F0010F91
:1001E00018BFFB1A43F0010300F001F8DBE71847E2
:1001F000A06C0000C06C0000103A24BF78C878C121
:10020000FAD8520724BF30C830C144BF04680C601C
:1002100070470000704700000023002400250026DE
:10022000103A28BF78C1FBD8520728BF30C148BF59
:100230000B607047642900F0F780002070471FB5FD
:1002400002F0B8F91FBD10B510BD00F040FA11461C
:10025000FFF7F5FF02F032F800F05EFA03B4FFF7A3
:10026000F2FF03BC00F066FA0948804709480047DE
:10027000FEE7FEE7FEE7FEE7FEE7FEE7FEE7FEE756
:10028000FEE7FEE704480549054A064B70470000B3
:10029000A522000895010008E0040020E00A0020E3
:1002A000E0060020E006002053EA020C00F069801E
:1002B0002DE9F04B4FF00006002B1FBFB3FA83F57A
:1002C00003FA05F424FA05F65E4012BF1643B2FAAB
:1002D00082F502FA05F4C5F120051EBF22FA05FCDD
:1002E00044EA0C04203556EA044C4FEA144418BF83
:1002F000641C4FF000084FF00009904271EB030CB2
:1003000039D3002919BFB1FA81F701FA07F6B0FA1B
:1003100080F700FA07F6C7F120071EBF20FA07FC96
:1003200046EA0C062037B6FBF4FCA7EB0507103FA6
:1003300007F01F0BCBF120062CFA06F60CFA0BFB8C
:1003400044BFB3460026202FA4BF5E464FF0000BEB
:100350005BEA060C08BF4FF0010B19EB0B0948EBE9
:100360000608ABFB027C06FB02CC0BFB03CCC01BDC
:1003700071EB0C01C1E70B46024641464846BDE819
:10038000F08B13B5084318BF4FF0FF300146AFF3B1
:100390000080BDE81C4070470FB41CB5074B06AA8F
:1003A0007B4469460090059800F047F900206946B3
:1003B00000F056F91CBC5DF814FB0000BD02000003
:1003C0002DE9F0410E460446002020622046E168F7
:1003D000884730B3252805D0D4E901219047206A09
:1003E000401CF2E7E168204600278847050018D046
:1003F000A5F14100192802D820354FF40067324694
:10040000294620462760FFF715FF40B1012804D098
:10041000F61D26F007060836D8E7361DD6E728462B
:10042000DAE7206ABDE8F0812DE9F04106460024B4
:1004300010687529314616A510D0AFF3008000284A
:1004400002DA404213A507E031688A0701D512A5F8
:1004500002E0490704D511A5012401E0AFF30080B3
:1004600000210A2206F1240709E0B0FBF2FCB0FBF0
:10047000F2F302FB1C00303078541846491C002867
:10048000F3D123462A463046BDE8F04100F077B864
:10049000000000002D0000002B00000020000000E4
:1004A000032A40F2308010F0030C00F0158011F8A0
:1004B000013BBCF1020F624498BF11F801CB00F878
:1004C000013B38BF11F8013BA2F1040298BF00F8CC
:1004D00001CB38BF00F8013B11F0030300F0C580E9
:1004E000083AC0F0088051F8043B083A51F804CBB0
:1004F000A0E80810F5E7121D5CBF51F8043B40F876
:10050000043BAFF30080D20724BF11F8013B11F880
:1005100001CB48BF11F8012B24BF00F8013B00F8C4
:1005200001CB48BF00F8012B70474FF0000200B527
:10053000134694469646203922BFA0E80C50A0E806
:100540000C50B1F12001BFF4F7AF090728BFA0E8B4
:100550000C5048BF0CC05DF804EB890028BF40F880
:10056000042B08BF704748BF20F8022B11F0804FC2
:1005700018BF00F8012B70477047704770472DE98E
:10058000F0470D4699469246044600F1240801685A
:10059000880604D5E06921F01001216000E0012007
:1005A000A84201DD471B00E00027A1697A1902EB90
:1005B0000900081AA0612078C00602D42046AFF3D3
:1005C0000080002608E0D4E901211AF806009047CF
:1005D000206A401C761C20624E45F4DB2078C00661
:1005E0000AD52046AFF3008006E0D4E9012130208F
:1005F0009047206A401C2062381EA7F10107F4DCF6
:1006000007E0D4E9012118F805009047206A401C52
:100610002062281EA5F10105F3DC2046AFF300801F
:100620002078000602D50220BDE8F0870120FBE714
:1006300001694A1C02610878704700B58FB0CDE9A6
:1006400001310021059105497944CDE90310114696
:100650006846FFF7B5FE0FB000BD0000E5FFFFFFE5
:100660000A6802F8010B0A60704710B5203AC0F022
:100670000B80B1E81850A0E81850B1E81850A0E875
:100680001850203ABFF4F5AF5FEA027C24BFB1E80E
:100690001850A0E8185044BF18C918C0BDE8104051
:1006A0005FEA827C24BF51F8043B40F8043B08BF5A
:1006B0007047D20728BF31F8023B48BF11F8012B21
:1006C00028BF20F8023B48BF00F8012B7047754651
:1006D00000F02CF8AE4605006946534620F00700AE
:1006E000854618B020B5FFF7CDFDBDE820404FF09E
:1006F00000064FF000074FF000084FF0000BAC462B
:10070000ACE8C009ACE8C009ACE8C009ACE8C00975
:1007100021F007018D46704710B50446AFF3008005
:100720002046BDE81040FFF799BD00000048704723
:100730002000002001491820ABBEFEE72600020081
:1007400070470000FEE7000070470000B0B50446A7
:1007500000F0E0F8054640F20000C2F20000007828
:10076000611C18BF044400BF00F0D4F8401BA04235
:10077000FAD3B0BD2DE9F04F83B000F1200200F1B3
:100780003E4741F20005009207F1FF77C4F20205EF
:1007900007224FEAB726A84208BF042200254FF0DF
:1007A00000084FF00009042E38BF4FEAB72201922B
:1007B0000AE000BF09F1010908F10208B9F1100FC0
:1007C00005F1040500F0A2800F68012202FA09FE7B
:1007D00017EA0E0AEED0D1F804C003220CF003078A
:1007E0007E1E02FA08F4012E6FEA040B12D8846808
:1007F000CE6804EA0B0406FA08F6344384604468C1
:1008000024EA0E06CCF3001404FA09F426434660E9
:1008100004E000BF032F01D103271EE0C6688C68E7
:1008200006EA0B0604FA08F42643022FC66014D128
:100830006FF00302009E02EA590756F807C005F060
:100840001C040F220B69A2402CEA0202A3401A43A7
:10085000F251D1F804C00CF00307026807FA08F35C
:1008600002EA0B021A431CF4403F0260A2D00022AD
:1008700043F644030292C4F202031A6843F60044AA
:1008800042F480421A601A68C4F2010402F4804201
:100890000292029A29F003024FF6084C2244CFF646
:1008A000FF7C52F80C3005F00C070F26BE40B34316
:1008B000019E06FA07F73B4342F80C30A2684B68EA
:1008C00042EA0A0743F60C4CDE0258BF22EA0A0746
:1008D000A760C4F2010CDCF800209E0242EA0A077D
:1008E00058BF22EA0A07CCF8007062689E0342EA09
:1008F0000A0758BF22EA0A0767602268DB0342EA58
:100900000A0758BF22EA0A07276053E703B0BDE889
:10091000F08F000040F2DC40C2F200000068704737
:10092000002804BF01207047F0B581B0044690F85C
:100930003D0028B9002084F83C00204600F09AFAD7
:10094000242084F83D002068016821F00101016045
:10095000016841F400410160016821F40041016037
:1009600000F01AFC636848F2A16CC0F2010C40F67A
:100970000011C0F23D0163453CBF48F28041C0F226
:100980001E01884202D2012001B0F0BD4DF6836104
:10099000C4F21B31A0FB01122168970CD1F804E0CE
:1009A0004FF496762EF03F0545EA92454D60774329
:1009B00048F638160D6AC0F24106A7FB067625F008
:1009C0003F07634538BF960C721C3A430A62CA69F6
:1009D00048F2A0664CF6FF77C0F20106B34222EA65
:1009E00007020BD801385B00B0FBF3F001306FF366
:1009F0001F30042898BF04201BE000BFA7680138FF
:100A000057B119277B43B0FBF3F001306FF31F3070
:100A100070B100F5804007E003EB4303B0FBF3F057
:100A200001306FF31F3018B100F5004001E000BF46
:100A300001201043C8610868D4E9072320F0C000F2
:100A4000104318430860886848F2FF3204F10C072D
:100A500090438CCF18431043A6698860C86820F083
:100A6000FF0038433043C860086840F00100086068
:100A700000202021206484F83D10206384F83E008B
:100A800001B0F0BD2DE9F04F83B01E469246884676
:100A90000446FFF73FFF94F83D10202924D1216838
:100AA000054600BF886980071AD5FFF733FF401B52
:100AB00021681A28F6D388698007F3D50020202101
:100AC000206384F83D1084F83E00216C41F0200141
:100AD000216484F83C00022003B0BDE8F08F00BF21
:100AE00094F83C00012803D1022003B0BDE8F08F48
:100AF0004FF0010984F83C900868C00703D10868EA
:100B000040F0010008600868002720F400600860D9
:100B1000242084F83D000020CFF6FF702764E062B7
:100B200008F0FE08BAF1010F88BFD1464FF0A00AC5
:100B30004FF0200B04E000BF01374F4500F0A280CA
:100B40000868002240F48070086020464FF00111D0
:100B50003346009500F0B8FD2168002856D1C1F851
:100B60001080FFF7D7FE21684B694A6994F83D5021
:100B7000A02D054605D013F0020008BF12F48060D6
:100B80001AD084F83DB048690A68800742F40072C0
:100B90000A6045D46FF48060486100BF88698007AF
:100BA000CAD5FFF7B7FE401B21681A28F6D388691B
:100BB0008007F3D54AE000BFB6B100BFFFF7AAFE39
:100BC000401BB04288BF84F83DA021684A6948694B
:100BD00094F83D30A02BD4D012F0020208BF10F4DC
:100BE0008060EBD0CDE700BFFFF794FE84F83DA016
:100BF00021684A69486994F83D30A02BC1D012F0B1
:100C00000202BED110F48060EED0BAE70868C005D9
:100C100044BF4FF400702064032003B0BDE8F08FA0
:100C200000200290486902908869029002988869C1
:100C300001E000BF806980071AD5FFF76BFE411BFA
:100C400020681A29F6D381698907F3D5002020216D
:100C5000206384F83D1084F83E00216C41F02001AF
:100C6000216484F83C00012003B0BDE8F08F00BF90
:100C7000202084F83D00002084F83C0003B0BDE84B
:100C8000F08F00BF202084F83D00002084F83C0055
:100C9000012003B0BDE8F08F2DE9F04383B01E467C
:100CA000174689460446FFF735FE94F83D10202983
:100CB00024D10546206800BF816989071AD5FFF74E
:100CC00029FE411B20681A29F6D381698907F3D5CB
:100CD00000202021206384F83D1084F83E00216C20
:100CE00041F02001216484F83C00022003B0BDE8FB
:100CF000F08300BF94F83C10012903D1022003B017
:100D0000BDE8F083012184F83C100168C90703D1D4
:100D1000016841F001010160016840F2020821F41C
:100D200000610160212184F83D10102184F83E10FB
:100D30000021216467626685618DC0F2010821850A
:100D4000A8F10211E162E16A0A9E11F5803F18BF25
:100D500001291DD1016841F48071016020464FF0E6
:100D6000011100223346009500F0AEFC50B120681E
:100D70000068C00544BF4FF400702064012003B038
:100D8000BDE8F0832069B0F5804F07D1FE2015E063
:100D90000829DFD0216B1229DCD0DFE7062000EA2A
:100DA000D9102168F030086108F10601204632466A
:100DB0002B4600F06FFD0028E0D1FF20216800EAFB
:100DC000090008612046414632462B4600F062FD8C
:100DD0000028D3D1002002902068416902918069E7
:100DE0000290029806E000BF204631462A4600F0F5
:100DF0000DFC18BB208D68B3204631462A4600F012
:100E0000B5FDD8B9606A2168024612F8013B0B6152
:100E10006262628D013A6285228D531E23854F697D
:100E20007F07E1D51B04DFD0437802300B6160629D
:100E3000608D01386085901E2085D5E7206C0428E0
:100E40009CD12068016841F400710160012003B069
:100E5000BDE8F0832068016841F400710160202042
:100E600084F83D00002084F83E0084F83C0003B084
:100E7000BDE8F083B0B586B045F200410068C4F229
:100E80000001002488420594CDE9034402940194B2
:100E900002D006B0B0BD00BF43F630050094C4F2E6
:100EA0000205286840F002002860286800F002006F
:100EB00000900098C02001901220CDE90204032088
:100EC00004900420059001F5D83001A9FFF752FCE9
:100ED0000094286940F400102861286900F400108B
:100EE0000090009806B0B0BD40F2000040F2DC4136
:100EF000C2F20000C2F2000100780A6810440860E3
:100F00007047000080B543F60040C4F2020001685B
:100F100041F400710160016841F480610160016881
:100F200041F480710160032000F074F80F2000F09C
:100F300005F800F027F8002080BD000070B540F2F1
:100F40000006C2F2000640F218013278C2F2000137
:100F50004FF47A730968B3FBF2F20446B1FBF2F185
:100F6000084600F03BFB0F2C4FF0010508D838B9BC
:100F70004FF0FF3021460022002500F01FF874607A
:100F8000284670BD82B0002043F640010190C4F2B3
:100F900002014A6842F480424A604A6802F4804290
:100FA0000192019A0090086840F08050086008683B
:100FB00000F080500090009802B0704710B54EF6D7
:100FC0000C5CCEF2000CDCF80030C3F3022E8EF085
:100FD0000704042C28BF0424BEF103034FF0FF3E96
:100FE0000EFA04F438BF0023A14399400EFA03F32C
:100FF0009A43114300F00F0200F160430901043AE3
:1010000003F564436244002848BF02F10C031970E1
:1010100010BD00004EF60C51CEF200010A684FF6EA
:10102000FF031A4060F30A2242F0806040F0FD7036
:1010300008607047002804BF012070472DE9F04187
:1010400043F60808C4F202080446D8F8F8030D462F
:1010500000F00700814207D988F8F853D8F8F80360
:1010600000F00700A84277D12068810717D5410713
:1010700005D5D8F8001041F4E051C8F80010010778
:1010800005D5D8F8001041F46041C8F80010D8F830
:101090000010A26821F0F0011143C8F80010C00749
:1010A00040D1D8F8F80300F00700854207D288F84D
:1010B000F853D8F8F80300F00700A8424CD1206894
:1010C000410707D5D8F80010E26821F4E051114338
:1010D000C8F80010000708D5D8F80000216920F4EE
:1010E000604040EAC100C8F8000000F069F8D8F894
:1010F000001042F2CE52C1F30311C0F60002515C5F
:1011000040F2180220FA01F140F20400C2F200009D
:101110000068C2F200021160FFF710FF0020BDE876
:10112000F08100BF6068811E022907D258F8081CB0
:1011300089015CBF0120BDE8F08111E0012807D1E1
:1011400058F8081C89035CBF0120BDE8F08107E066
:1011500058F8081C890703D40120BDE8F08100BFBE
:10116000D8F8001021F003010843C8F80000FFF789
:10117000D1FB064641F28837D8F80000616800F0DC
:101180000C00B0EB810F8CD0FFF7C4FB801BB84282
:10119000F2D90320BDE8F08140F2180043F60801BF
:1011A000C2F20000C4F202010068096842F2DE5295
:1011B000C1F38221C0F60002515CC84070470000B4
:1011C00010B543F60404C4F202046168C1F381015E
:1011D00042F20040C0F2F400DFE801F002040A022B
:1011E00010BD00BF47F64000C0F27D1010BD00BF2B
:1011F000206821682368490247F64001C0F27D114A
:1012000000F03F02C3F388105CBF42F20041C0F21D
:10121000F401A1FB00010023FFF746F82168022238
:10122000C1F3014102EB4101B0FBF1F010BD000040
:10123000002804BF012070472DE9F04182B0044628
:10124000007843F60006C007C4F202060CD0B0686E
:1012500000F00C00042840F081803068800303D542
:101260006068002800F06881207880071BD5B0688E
:1012700010F00C0F09D0B06800F00C00082840F006
:1012800087807068400200F183803068800703D552
:10129000E068012840F050813068216920F0F800B2
:1012A00040EAC10030602078000713D4207840075E
:1012B0002AD4A569002D00F03A81B06800F00C0036
:1012C000082840F0A580012D40F00E81012002B0D9
:1012D000BDE8F0816069002800F082800020C4F23F
:1012E00047200121C0F8801EFFF714FB054600BF10
:1012F000706F8007DAD4FFF70DFB401B0228F7D987
:10130000032002B0BDE8F081306C5FEAC0080AD467
:1013100000200190306C40F080503064306C00F060
:1013200080500190019847F20007C4F20007386826
:10133000C00547D4386840F480703860FFF7EAFA97
:10134000054600BF3868C0053CD4FFF7E3FA401BF0
:101350000228F7D9032002B0BDE8F081B06800F0A0
:101360000C00082803D1706840023FF576AF616831
:101370003068B1F5803F07D0B1F5A02F40F09A80DA
:1013800040F480203060306840F4803030609AE073
:10139000E068002840F20000C4F247205CD0012140
:1013A0000160FFF7B7FA0546306880073FF574AF74
:1013B000FFF7B0FA401B0228F6D9032002B0BDE8BF
:1013C000F08100BFA168306F012905D0052955D1F2
:1013D00040F004003067306F40F00100306756E0A5
:1013E0000020C4F247200021C0F8801EFFF792FAC7
:1013F000054600BF706F80077FF558AFFFF78AFA88
:10140000401B0228F6D9032002B0BDE8F08100BFDE
:101410000027C4F2472700203866FFF77BFA022D29
:1014200005460DD13068800140F18A80FFF772FADD
:10143000401B02284FF00300F4D902B0BDE8F08150
:101440003068800173D5FFF765FA401B02284FF022
:101450000300F5D9F1E700BF00210160FFF75AFA58
:10146000054600BF306880077FF51DAFFFF752FAD1
:10147000401B02284FF00300F4D9DEE720F0010002
:101480003067306F002920F0040030677AD0FFF712
:1014900041FA054641F28837306F800700F18480B9
:1014A000FFF738FA401BB842F6D9032002B0BDE876
:1014B000F08100BF20F4803030603068002920F4D3
:1014C000802030607AD0FFF725FA05463068800327
:1014D0003FF5CAAEFFF71EFA401B6428F6D9032079
:1014E00002B0BDE8F08100BF7068E16900F48002DD
:1014F0008A4221D1216A00F03F028A421CD147F67C
:10150000C071626A0140B1EB821F15D1A16A4FF62A
:10151000FF73C903994300F44032A1F580318A4238
:101520000AD1E16A00F07060B0EB016F04D10020D5
:1015300002B0BDE8F08100BF012002B0BDE8F0813B
:1015400004F11C052FCD084340EA8210D9034FF661
:10155000FF729143A1F5803140EA05600843706055
:1015600001203866FFF7D6F9044600BF30688001D5
:10157000DDD4FFF7CFF9001B02284FF00300F5D9A7
:101580005BE700BFFFF7C6F9054641F2883700BFA9
:10159000306F800708D5FFF7BDF9401BB8424FF008
:1015A0000300F5D949E700BFB8F1000F3FF581AE60
:1015B000306C20F0805030647BE600BFFFF7AAF962
:1015C000054600BF306880037FF54EAEFFF7A2F9F5
:1015D000401B64284FF00300F4D92EE7411E002081
:1015E000B0EB116F1CBF012070474EF21002CEF21B
:1015F000000251604EF62351CEF20001F0230B7031
:101600000721906011607047FEE7000070B5036825
:10161000044653F8140F400711D40E46481C29D035
:1016200086BB00BF1868400527D4FFF773F923680D
:1016300053F8140F400737D518684007F2D500203B
:1016400070BD00BF18684007F9D41868400514D46D
:1016500018684007F3D4186840050ED4186840078E
:10166000EDD41868400508D4186840074FF0000012
:1016700048BF70BD18684005E4D56FF480601860FD
:10168000042012E0154603E053F8140F4007D6D4A7
:1016900018684005F1D4FFF73DF9401B2368B042BC
:1016A000F2D958694007EFD420200021202221637D
:1016B00084F83D2084F83E10226C10432064012001
:1016C00084F83C1070BD00002DE9F041054600682B
:1016D0001E46144601F47F0201338FB242D0DDF87A
:1016E0001880B2F5803F40F0878040693840C01BC9
:1016F000B0FA80F04009844240F0C8804EB924E03E
:1017000040693840C01BB0FA80F04009844240F084
:10171000BD80FFF7FFF8A0EB08012868B142EFD9C0
:1017200041693940C91BB1FA81F149098C42E7D1BD
:101730009BE000BF40693840C01BB0FA80F0400910
:1017400084424FF0000040F0A280FFF7E3F82868E1
:1017500041693940C91BB1FA81F149098C42E9D18B
:1017600083E000BFB2F5803F24D100BF416939401A
:10177000C91BB1FA81F149098C4240F08780416967
:101780003940C91BB1FA81F149098C4240F07E8091
:1017900041693940C91BB1FA81F149098C4275D1BF
:1017A00041693940C91BB1FA81F149098C42DDD048
:1017B0006CE000BF81693940C91BB1FA81F1490968
:1017C0008C4263D181693940C91BB1FA81F1490961
:1017D0008C425BD181693940C91BB1FA81F1490959
:1017E0008C4253D181693940C91BB1FA81F1490951
:1017F0008C42DFD04AE000BF80693840C01BB0FA9D
:1018000080F04009844241D146B923E080693840E4
:10181000C01BB0FA80F04009844237D1FFF77AF854
:10182000A0EB08012868B142F0D981693940C91B91
:10183000B1FA81F149098C42E8D116E0806938405B
:10184000C01BB0FA80F0400984424FF0000018BF7E
:10185000BDE8F081FFF75EF8286881693940C91B4F
:10186000B1FA81F149098C42E8D100202021286396
:1018700085F83D1085F83E00296C41F0200129646F
:1018800085F83C000120BDE8F08100BF0020BDE8E4
:10189000F0810000F0B581B0044600681D46436940
:1018A0008FB203EA0701B94202D1002001B0F0BDB6
:1018B0004169164601323CD0490512D47EB300BFBF
:1018C000FFF728F8411B2068B14203D9416939402C
:1018D000B9422BD141693940B942E6D04169490545
:1018E000EED5016841F4007101606FF480614161DF
:1018F000042000212022216384F83D2084F83E103A
:10190000226C1043206484F83C10012001B0F0BD2B
:1019100041693940B942C8D041694905E1D4FEF76F
:10192000F9FF206841693940B942F1D02020E0E751
:1019300041694905D5D441693940B942B5D04169B9
:101940004905CED441693940B942AED04169490513
:10195000C7D441693940B942A7D041694905C0D4CB
:1019600041693940B942E3D19FE7000070B503688F
:10197000044653F8140F000611D40E46481C29D013
:1019800086BB00BF1868400527D4FEF7C3FF236855
:1019900053F8140F000637D518680006F2D500205A
:1019A00070BD00BF18680006F9D41868400514D44B
:1019B00018680006F3D4186840050ED418680006AD
:1019C000EDD41868400508D4186800064FF00000F0
:1019D00048BF70BD18684005E4D56FF4806018609A
:1019E000042012E0154603E053F8140F0006D6D485
:1019F00018684005F1D4FEF78DFF401B2368B04204
:101A0000F2D958690006EFD420200021202221635A
:101A100084F83D2084F83E10226C1043206401209D
:101A200084F83C1070BD0000FEE70000FEE70000F7
:101A30007047000080B540F28800C2F200004FF409
:101A40008061FEF772FDBDE8804000F0D7BB00006A
:101A50002DE9F04F87B0CDE90123109A012AC0F299
:101A600095810C4602990129C0F29081029940F2B9
:101A70008003CA1DC2F2000302EB52721B78D2101F
:101A80000092B3FA83F25209069201F00302039224
:101A900047F6FC7201EA020E00214FF0000A0AE04C
:101AA0004FEA4A0A0499109A059C0131914204F1C7
:101AB000010400F06B81DDE90032CDE9041401FB83
:101AC0000329A2B23F2A05D9029A042A80F0A280F3
:101AD0000022ADE004F00702012101FA02FC029AA3
:101AE0004FF4607101EA041B042A6FEA0C084FF0FE
:101AF000000212D203990029D4D0530700F0A68027
:101B00004FEA4A0A4FFA8AF3B3F1FF3F00F3BC8071
:101B1000A4E000BF04329645ECD053075ABFD30867
:101B200019F803304FEA4A035DB2B5F1FF3F17DC05
:101B30008518AEB27F2E13D845EA0B0540F2880A0D
:101B4000ADB2C2F2000A1AF80560119C0699E4B21F
:101B500006EA08078C4208BF46EA0C070AF8057037
:101B60005B005BB2B3F1FF3F18DC8418651CACB2BC
:101B70007F2C13D845EA0B0440F2880AA4B2C2F2C3
:101B8000000A1AF80450119E0699F6B205EA0807F1
:101B90008E4208BF45EA0C070AF804705B005BB28E
:101BA000B3F1FF3F18DC8418A51CACB27F2C13D80E
:101BB00045EA0B0440F2880AA4B2C2F2000A1AF8FD
:101BC0000450119E0699F6B205EA08078E4208BF36
:101BD00045EA0C070AF804705B004FFA83FABAF181
:101BE000FF3F97DC831803339CB27F2C92D843EAE3
:101BF0000B0340F288079BB2C2F20007FC5C119D08
:101C00000699EDB204EA08068D4208BF44EA0C06C4
:101C1000FE547FE7002200BF53075ABFD30819F8CC
:101C200003304FEA4A03043296454FEAC30AF3D120
:101C3000039900293FF436AF530735D04FEA4A0ADB
:101C4000039901293FF42EAF35E000BFD30819F8FE
:101C500003A04FFA8AF3B3F1FF3F15DC83189CB25F
:101C60007F2C11D843EA0B0340F288079BB2C2F2E3
:101C70000007FC5C119D0699EDB204EA08068D424E
:101C800008BF44EA0C06FE54039901293FF40AAF49
:101C9000531C5C071AD04FEA4A0A4FFA8AF4B4F18F
:101CA000FF3F31DC1AE000BFD30819F803A0039905
:101CB00001293FF4F7AE531C5F0735D04FEA4A0ABB
:101CC000039902293FF4EEAE35E000BFDC0819F8B5
:101CD00004A04FFA8AF4B4F1FF3F15DC03449CB230
:101CE0007F2C11D843EA0B0340F288079BB2C2F263
:101CF0000007FC5C119D0699EDB204EA08068D42CE
:101D000008BF44EA0C06FE54039902293FF4CAAE08
:101D10000232530718D04FEA4A0A4FFA8AF3B3F156
:101D2000FF3F3FF7BFAE18E0DB0819F803A00399A7
:101D300002293FF4B7AE023253077FF4B1AED208A6
:101D400019F802A0AEE600BFD30819F803A04FFAB5
:101D50008AF3B3F1FF3F3FF7A5AE024493B27F2B66
:101D60003FF6A0AE42EA0B0240F2880692B2C2F2FF
:101D70000006B35C119C0699E4B203EA08058C42A4
:101D800008BF43EA0C05B5548CE600BF07B0BDE8B8
:101D9000F08F000040F28002C2F200025080918079
:101DA000704700002DE9F04182B040F28840C2F255
:101DB00000007821012244F62063FEF763FE4FF015
:101DC000000418B1204602B0BDE8F08140F2884519
:101DD0004FF42E40C2F20005ADF806000A260DF1C0
:101DE00006022846782102230096FEF755FF4FF49D
:101DF00000580DF10602284678210223ADF806802E
:101E00000096FEF749FF4FF480570DF10602284671
:101E100078210223ADF806700096FEF73DFF4FF4DF
:101E20003040ADF806000DF1060228467821022365
:101E30000096FEF731FF4FF44840ADF806000DF173
:101E400006022846782102230096FEF725FF0DF1B1
:101E50000602284678210223ADF806400096FEF7D8
:101E60001BFF0DF10602284678210223ADF806700B
:101E70000096FEF711FF4FF48040ADF806000DF11B
:101E800006022846782102230096FEF705FF4FF44C
:101E90000140ADF806000DF1060228467821022324
:101EA0000096FEF7F9FE4FF47F40ADF806000DF105
:101EB00006022846782102230096FEF7EDFE4FF435
:101EC0002140ADF806000DF10602284678210223D4
:101ED0000096FEF7E1FE4FF42640ADF806000DF146
:101EE00006022846782102230096FEF7D5FE4FF41D
:101EF0002840ADF806000DF106022846782102239D
:101F00000096FEF7C9FE4FF47C50ADF806000DF1C7
:101F100006022846782102230096FEF7BDFE4FF404
:101F20002440ADF806000DF1060228467821022370
:101F30000096FEF7B1FE4FF45340ADF806000DF1E8
:101F400006022846782102230096FEF7A5FE0DF131
:101F50000602284678210223ADF806400096FEF7D7
:101F60009BFE4FF45540ADF806000DF106022846E1
:101F7000782102230096FEF78FFE4FF47040ADF8F3
:101F800006000DF106022846782102230096FEF78E
:101F900083FE4FF45940ADF806000DF106022846C5
:101FA000782102230096FEF777FE4FF40850ADF833
:101FB00006000DF106022846782102230096FEF75E
:101FC0006BFE4FF45A40ADF806000DF106022846AC
:101FD000782102230096FEF75FFE4FF49050ADF893
:101FE00006000DF106022846782102230096FEF72E
:101FF00053FE4FF45B40ADF806000DF10602284693
:10200000782102230096FEF747FE0DF106022846CE
:1020100078210223ADF806800096FEF73DFE4FF4CE
:102020000D40ADF806000DF1060228467821022386
:102030000096FEF731FE4FF4A050ADF806000DF10A
:1020400006022846782102230096FEF725FE4FF46B
:102050002F40ADF806000DF1060228467821022334
:102060000096FEF719FE4FF43850ADF806000DF15A
:1020700006022846782102230096FEF70DFE40F264
:102080008800C2F200004FF48061FEF74EFA00F0C3
:10209000B5F840F28000C2F20000C0F8024001240E
:1020A000204602B0BDE8F0812DE9F04F89B040F242
:1020B0008005C2F20005B5F802E091F8008008EB57
:1020C0000E077F2F04D8AB884E78F7183F2F03D91F
:1020D000002009B0BDE8F08F002E009066D02D786A
:1020E0002038B5FA85F77C09B2FA82F702907809B0
:1020F0000790002D18BF01254868121BB2FA82F222
:10210000019000275009444608950690CDE9033117
:1021100004E000BF00240137B74247D2002CF9D0B9
:10212000DA1995B23F2DF6D80298019B704303EB64
:10213000400030F817A002F00700012303FA00F571
:102140004FF4607091F8008000EA021B6FEA050C02
:102150000022059703E000BF0132424520D20EEB7A
:1021600002061FFA86F9B9F17F0FF5D846EA0B0689
:1021700040F288000AFA02F1B6B2C2F20000090485
:10218000835D0699DDE9077458BF87EA040103EA15
:102190000C04002918BF43EA05048455DCE700BF9E
:1021A0000499039B4E78059F4446B4E740F28001B2
:1021B0005EFA88F0C2F2000148805DF8240BBDE8A9
:1021C000F08F00000378002B04BF0020704770B52B
:1021D00014460D46461C00BFD8B229462246FFF7DA
:1021E00063FF16F8011C884204D116F8013B002B4E
:1021F000F2D10021BDE87040084670472DE9F04F4C
:10220000C1B00DF1040B40F288460BF101094FF00B
:1022100000086FF07F050A24C2F200064FF0000AA2
:1022200040F288008035C2F200002F184AF0B0005A
:102230008DF80500304678215A4602238DF8048037
:102240000094FEF729FD304678215A460223ADF866
:1022500004800094FEF720FD4FF48050ADF8040098
:10226000304678215A4602230094FEF715FD40209F
:102270008DF80400484639468022FEF711F93046B1
:1022800078215A4681230094FEF706FDB5F5607F5C
:102290000AF1010AC4D141B0BDE8F08F70470000D7
:1022A000FEF722BE4EF68850CEF20000016841F4DF
:1022B0007001016070470000FEE7000094B043F633
:1022C0003005C4F20205FEF71DFE08AC20463021A1
:1022D000FEF72BF900260796CDE90566CDE90366E2
:1022E00002962869022240F080502861286901275F
:1022F00000F080500290029847F200000296C4F26B
:102300000000016862F38F310160006800F4404012
:10231000029002984FF480300990204608970E965C
:10232000FEF786FF10B172B6FEE700BF0F20CDE9C1
:10233000030703A80021CDE905660796FEF77AFE9C
:1023400010B172B6FEE700BF00210891286845F27F
:10235000004240F080002860286841F6802300F0A9
:1023600080000890089808912868C4F2000240F0A4
:10237000010028602868C0F2060300F00100089000
:102380000898089128684FF4804740F002002860C0
:10239000286800F002000890089840F28840C2F2D5
:1023A0000000C0E90023C0E90211C0E90471C0E9DE
:1023B00006110162FEF7B4FA10B172B6FEE700BF73
:1023C00075A108A843F23902FDF7E6FFFFF7EAFC22
:1023D00000200021FFF7DEFC40F208016FA0C2F2EE
:1023E000000101224FF0010AFFF7ECFE0A201E2136
:1023F000FFF7D0FC40F210016BA0C2F200010122F5
:10240000FFF7E0FEFFF7FAFE4FF4FA60FEF79EF9E1
:10241000FFF710FBC820FEF799F945F68E2445F624
:102420008E6546F28E2646F28E6746F68E2844F674
:102430008E294FF0400BC0F60004C0F60005C0F630
:102440000006C0F60007C0F60008C0F6000900BF8D
:10245000FFF7F0FA44F28E6200200A21C0F6000273
:102460007D23CDE900BAFFF7F3FAFFF7C7FE00209E
:10247000FEF76CF9FFF7DEFA44F68E6200200A21BF
:10248000C0F600027D23CDE900BAFFF7E1FAFFF7BD
:10249000B5FE0020FEF75AF9FFF7CCFA45F28E227E
:1024A00000200A21C0F600027D23CDE900BAFFF723
:1024B000CFFAFFF7A3FE0020FEF748F9FFF7BAFABC
:1024C00045F28E6200200A21C0F600027D23CDE98C
:1024D00000BAFFF7BDFAFFF791FE0020FEF736F9CC
:1024E000FFF7A8FA00200A2122467D23CDE900BA91
:1024F000FFF7AEFAFFF782FE0020FEF727F9FFF79D
:1025000099FA00200A212A467D23CDE900BAFFF777
:102510009FFAFFF773FE0020FEF718F9FFF78AFA1B
:1025200000200A2132467D23CDE900BAFFF790FA58
:10253000FFF764FE0020FEF709F9FFF77BFA0020A1
:102540000A213A467D23CDE900BAFFF781FAFFF769
:1025500055FE0020FEF7FAF8FFF76CFA00200A217A
:1025600042467D23CDE900BAFFF772FAFFF746FE37
:102570000020FEF7EBF8FFF75DFA00200A214A463B
:102580007D23CDE900BAFFF763FAFFF737FE00209D
:10259000FEF7DCF85CE700BF2564000052616A6961
:1025A0006220486173616E00574F524C44202121D4
:1025B00000000000F1EE100A4FF6FF71C0F2C031CA
:1025C00020EA010040F04070E1EE100A7047000080
:1025D00000000000000001020304060708090000D3
:1025E00000000102030400000000000000000000E1
:1025F00000000000000000000000000000000000DB
:10260000000000000000000000000000000C000CB2
:10261000000C000C000C000C000C000C000C000C5A
:10262000000C0000000C000C000000000000000086
:10263000001B001B001B001B001B00000000000013
:10264000000000000000000000000000000000008A
:10265000000000008019801980198019C07FC07F98
:1026600080190033C07FC07F003300330033003354
:102670000000000000000000001E003F8075806523
:102680000074003C001E0007800580658065807531
:10269000003F001E0004000400000000007000D88D
:1026A00040D8C0D880D900730006000C801BC0360B
:1026B000C066C046C00680030000000000000000A5
:1026C000001E003F003300330033001E000CC03CEE
:1026D000C066806380618063C03E801C0000000093
:1026E00000000000000C000C000C000C000C0000AE
:1026F00000000000000000000000000000000000DA
:102700000000000000008000000100030006000639
:102710000004000C000C000C000C000C000C000469
:1027200000060006000300018000002000100018D1
:10273000000C000C0004000600060006000600065F
:1027400000060004000C000C00180010002000001F
:10275000000C002D003F001E0033000000000000B0
:102760000000000000000000000000000000000069
:102770000000000000000000000C000C000C000C29
:10278000C0FFC0FF000C000C000C000C000000009B
:102790000000000000000000000000000000000039
:1027A0000000000000000000000000000000000029
:1027B000000C000C000400040008000000000000F1
:1027C000000000000000000000000000001E001ECD
:1027D00000000000000000000000000000000000F9
:1027E00000000000000000000000000000000000E9
:1027F0000000000000000000000C000C00000000C1
:1028000000000000000300030003000600060006AD
:102810000006000C000C000C000C0018001800183A
:102820000000000000000000001E003F0033806137
:1028300080618061806D806D806180618061003326
:10284000003F001E00000000000000000006000E17
:10285000001E0036002600060006000600060006E0
:102860000006000600060006000000000000000050
:10287000001E003F807380618061800100030006BC
:10288000000C001800300060807F807F0000000096
:1028900000000000001C003E006300630003000E07
:1028A000000E00038001800180618073003F001EE4
:1028B00000000000000000000006000E000E001ED8
:1028C000001E0016003600360066807F807F0006FE
:1028D000000600060000000000000000007F007FEE
:1028E000006000600060006E007F806380018001F6
:1028F00080618073003F001E0000000000000000A7
:10290000001E003F803380610060006E007F807396
:102910008061806180618033003F001E0000000004
:1029200000000000807F807F80010003000300061C
:102930000006000C000C000C00080018001800181D
:102940000000000000000000001E003F8063806166
:1029500080610021001E003F806180618061806194
:10296000003F001E0000000000000000001E003FAD
:1029700000738061806180618073803F801D800171
:1029800080610073003F001E000000000000000096
:102990000000000000000000000C000C000000001F
:1029A0000000000000000000000C000C000000000F
:1029B0000000000000000000000000000000000C0B
:1029C000000C00000000000000000000000C000CE3
:1029D0000004000400080000000000000000800067
:1029E0008003000E003800600038000E8003800075
:1029F00000000000000000000000000000000000D7
:102A000000000000807F807F00000000807F807FCA
:102A100000000000000000000000000000000000B6
:102A200000000000000000400070001C0007800152
:102A30000007001C007000400000000000000000C3
:102A400000000000001F803FC071C060C000C001D6
:102A500080030007000E000C000C0000000C000CAE
:102A60000000000000000000001E003F8031807167
:102A70008063806F806D806D806F80670060003242
:102A8000003E001C0000000000000000000E000ED0
:102A9000001B001B001B001B80318031803F803FEA
:102AA0008031C060C060C060000000000000000015
:102AB000007C007E0063006300630063007E007E94
:102AC0000063806180618063007F007E0000000001
:102AD00000000000001E003F803180610060006047
:102AE000006000600060006080618031003F001E77
:102AF0000000000000000000007C007F0063806395
:102B000080618061806180618061806100630063B9
:102B1000007E007C0000000000000000807F807FBD
:102B20000060006000600060007F007F0060006067
:102B300000600060807F807F0000000000000000D7
:102B4000807F807F0060006000600060007F007F09
:102B50000060006000600060006000600000000035
:102B600000000000001E003F8031806100600060B6
:102B7000006080638063806180618031803F001EDF
:102B800000000000000000008061806180618061C1
:102B900080618061807F807F8061806180618061F1
:102BA000806180610000000000000000003F003FE5
:102BB000000C000C000C000C000C000C000C000CB5
:102BC000000C000C003F003F00000000000000006F
:102BD00080018001800180018001800180018001ED
:102BE0008001806180618073003F001E0000000052
:102BF00000000000C0608061006300660066006C39
:102C00000078007C00660066006380618061C060BF
:102C10000000000000000000006000600060006034
:102C200000600060006000600060006000600060A4
:102C3000807F807F0000000000000000C071C07134
:102C4000C07BC07AC06AC06AC06EC064C060C06029
:102C5000C060C060C060C0600000000000000000F4
:102C600080718071807980798079806D806D806DD0
:102C700080658067806780678063806300000000F4
:102C800000000000001E003F003380618061806111
:102C9000806180618061806180610033003F001E3F
:102CA0000000000000000000007E007F8063806163
:102CB000806180618063007F007E00600060006052
:102CC000006000600000000000000000001E003FE7
:102CD0000033806180618061806180618061806596
:102CE00080670033803F401E0000000000000000AD
:102CF000007E007F8063806180618063007F007E52
:102D000000660063006380618061C06000000000B5
:102D100000000000000E001F8031803100300038BC
:102D2000001E00078003806180618031003F001E2B
:102D30000000000000000000C0FFC0FF000C000CFD
:102D4000000C000C000C000C000C000C000C000C23
:102D5000000C000C00000000000000008061806199
:102D6000806180618061806180618061806180615B
:102D700080618073003F001E000000000000000022
:102D8000C060C060C060803180318031001B001B9A
:102D9000001B001B000E000E000E000400000000CF
:102DA00000000000C0C0C0C0C0C0C0C0C0C0C0CC17
:102DB000804C804C805E8052805280738061806144
:102DC0000000000000000000C0C08060806100338F
:102DD000003B001E000C000C001E001F003B807119
:102DE0008061C0C00000000000000000C0C0806121
:102DF000806100330033001E001E000C000C000C2C
:102E0000000C000C000C000C000000000000000092
:102E1000803F803F8001000300030006000C000C8F
:102E20000018001800300060807F807F00000000E4
:102E30000000000F000F000C000C000C000C000C38
:102E4000000C000C000C000C000C000C000C000C22
:102E5000000C000F000F0000001800180018000CF4
:102E6000000C000C000C0006000600060006000323
:102E700000030003000000000000001E001E00060A
:102E80000006000600060006000600060006000612
:102E900000060006000600060006001E001E0000D8
:102EA000000C000C001E00120033003380618061B2
:102EB0000000000000000000000000000000000012
:102EC0000000000000000000000000000000000002
:102ED00000000000000000000000000000000000F2
:102EE0000000E0FF0000000000380018000C0000A7
:102EF00000000000000000000000000000000000D2
:102F000000000000000000000000000000000000C1
:102F100000000000001F803F80618001801F803F13
:102F200080618063807FC0380000000000000000E6
:102F30000060006000600060006E007F8073806150
:102F40008061806180618073007F006E00000000FE
:102F5000000000000000000000000000001E003F14
:102F6000807380610060006080618073003F001E9C
:102F7000000000000000000080018001800180014D
:102F8000801D803F8073806180618061806180737B
:102F9000803F801D000000000000000000000000D5
:102FA00000000000001E003F00738061807F807F72
:102FB00000608071003F001E000000000000000063
:102FC000C007C00F000C000C807F807F000C000C3D
:102FD000000C000C000C000C000C000C00000000A9
:102FE00000000000000000000000801D803F807392
:102FF00080618061806180618073803F801D80017D
:103000008063007F003E00000060006000600060A0
:10301000006F807F807180618061806180618061EC
:1030200080618061000000000000000000060006D2
:1030300000000000003E003E0006000600060006FC
:103040000006000600060006000000000000000662
:10305000000600000000003E003E000600060006DC
:103060000006000600060006000600060046007E78
:10307000003C000000600060006000608061006350
:103080000066006C007C0076006300638061C060B5
:103090000000000000000000003E003E00060006A8
:1030A00000060006000600060006000600060006F0
:1030B0000006000600000000000000000000000004
:1030C0000000000080DDC0FFC0CEC0CCC0CCC0CCB2
:1030D000C0CCC0CCC0CCC0CC0000000000000000C0
:1030E0000000000000000000006F807F80718061A0
:1030F000806180618061806180618061000000008A
:10310000000000000000000000000000001E003F62
:10311000807380618061806180618073003F001EE8
:103120000000000000000000000000000000006E31
:10313000007F807380618061806180618073007F27
:10314000006E006000600060006000000000000091
:103150000000801D803F807380618061806180619C
:103160008073803F801D800180018001800100000C
:1031700000000000000000000067803F00390030C0
:10318000003000300030003000300030000000001F
:10319000000000000000000000000000001E803F52
:1031A00080610060007F803F80018061007F001EA1
:1031B00000000000000000000000000800180018D7
:1031C000007F007F00180018001800180018001871
:1031D000801F800F000000000000000000000000C1
:1031E0000000000080618061806180618061806199
:1031F00080618063807F803D00000000000000004F
:103200000000000000000000C0608031803180318B
:10321000001B001B001B000E000E0006000000003B
:1032200000000000000000000000000080DD80DDE4
:1032300080DD005500550055007700770022002200
:10324000000000000000000000000000000000007E
:10325000806100330033001E000C000C001E0033A0
:10326000003380610000000000000000000000004A
:10327000000080618061803100330033001B001B3F
:10328000001B000E000E000E001C007C00700000F1
:103290000000000000000000C07FC07F800100032C
:1032A0000006000C00180030C07FC07F0000000046
:1032B00000008003800700060006000600060006E6
:1032C000000E001C001C000E000600060006000692
:1032D00000068007800300060006000600060006C0
:1032E00000060006000600060006000600060006AE
:1032F000000600060006000600060038003C000C30
:10330000000C000C000C000C000E00070007000E63
:10331000000C000C000C000C000C003C00380000FD
:103320000000000000000000000000008038807FE6
:103330000047000000000000000000000000000046
:10334000000000000000000000000000000000007D
:10335000000000000000000000000000000000006D
:10336000000000000000000000000000000000005D
:10337000000000000000E003E003E003E003E003DE
:10338000E003E003E003C003C003C001C001C001CB
:10339000C001C001000000000000E003E003E00302
:1033A000000000000000000000003C1E3C1E3C1E0F
:1033B0003C1E3C1E3C1E3C1E0000000000000000A5
:1033C00000000000000000000000000000000000FD
:1033D0000000000000000000000000000000CE011E
:1033E000CE03DE039E039C039C07FF3FFF7F38074D
:1033F000380F780F780F780EFFFFFFFFF01EF01CDC
:10340000E01CE03CE03DE03900000000000000006E
:103410000000FC03FE0FEE1FE01EE01EE01EE01E9B
:10342000E01FE00FE007F003FC01FE01FE01FE01DA
:10343000FE01FE01FE01FE3DFC3FF00FE001E00158
:10344000000000000000033E07F78FE78EE79EE3D1
:10345000BCE3B8E7F8E7F0F7E03FC001FF03FF0780
:10346000F307F30FF31EF33CF338F3787FF03FE0FC
:1034700000000000000000000000E007F80F780FD7
:10348000781F781F781F780FF00FE00F801FC37F21
:10349000C3FBE7F3F7F1F7F0FFF07FF03EF87F7C36
:1034A000FF3FEF1F00000000000000000000E003ED
:1034B000E003E003E003E003C003C00100000000FC
:1034C00000000000000000000000000000000000FC
:1034D00000000000000000000000000000000000EC
:1034E00000003F007C00F001E001C003C00780073E
:1034F0008007800F000F000F000F000F000F000F5C
:10350000800F80078007C007C003E001F0017C0046
:103510003F000F000000007E001FC007C003E00155
:10352000F001F000F000F8007800780078007800F2
:1035300078007800F800F000F000F001E001C0032E
:10354000C007001F007E00780000E003C003C00138
:10355000CE39FF3F7F3F20037003F807780F3C1FF1
:10356000380600000000000000000000000000001D
:10357000000000000000000000000000000000004B
:1035800000000000000000000000C001C001C001F8
:10359000C001C001C001C001FFFFFFFFC001C001A9
:1035A000C001C001C001C001000000000000000017
:1035B000000000000000000000000000000000000B
:1035C00000000000000000000000000000000000FB
:1035D00000000000E003E003E003E003E001E0019D
:1035E000E001C001800300000000000000000000B6
:1035F000000000000000000000000000FE3FFE3F51
:1036000000000000000000000000000000000000BA
:1036100000000000000000000000000000000000AA
:10362000000000000000000000000000000000009A
:10363000000000000000000000000000E003E003C4
:10364000E003E003000000000000000000000F00A5
:103650000F001E001E003C003C0078007800F000C7
:10366000F000E001E001C003C00380078007000F05
:10367000000F001E001E003C003C0078007800F0A7
:103680000000F007F80F7C1F3E3E1E3C1F7C1F7C95
:103690000F780F780F780F780F780F780F781F7CDE
:1036A0001F7C1E3C3E3E7C1FF80FF0070000000010
:1036B000000000000000F000F007F03FF03FF001D4
:1036C000F001F001F001F001F001F001F001F00172
:1036D000F001F001F001F001F001F001FF3FFF3FC8
:1036E00000000000000000000000E00FF83F7C3CFC
:1036F0003C003E003E003E003C003C007C00F800E8
:10370000F001E003C0078007000F001E003E003CF0
:10371000FE3FFE3F00000000000000000000F00F30
:10372000F81F7C1C3E003E003E003C003C00F800C0
:10373000F00FF80F7C003E001E001E001E001E0051
:103740003E007C1CF81FE01F00000000000000008D
:1037500000007800F800F800F801F803F807F8070F
:10376000780F781E781E783C78787878FFFFFFFF16
:103770007800780078007800780078000000000079
:10378000000000000000FC1FFC1FFC1F001E001EAC
:10379000001E001E001EE01FF81FFC007C003E0003
:1037A0003E001E003E003E003C007C1CF81FE01F57
:1037B00000000000000000000000FC01FE078E0F6A
:1037C000001F001E003E003C003CF83DFC3F3E7FD9
:1037D0001F7E0F3C0F3C0F3C0F3C0F3E1F1E3E1F39
:1037E000FC0FF00300000000000000000000FF3F9D
:1037F000FF3FFF3F0F001E001E003C003800780016
:10380000F000F000E001E001C003C0038007800F7A
:10381000800F000F001F001F0000000000000000CC
:103820000000F807FC0F3E1F1E1E1E3E1E3E1E1E01
:103830003C1FF80FF007F80FFC1E3E3E1F3C1F7C9C
:103840000F7C0F7C1F3C3E3FFC1FF0070000000078
:10385000000000000000F007F80F7C1E3E3C1E3CFC
:103860001F7C1F7C1F7C1F7C1F3C3F3EFF1FEF0700
:103870001F001E001E003E003C00F838F03FE01F15
:103880000000000000000000000000000000000038
:10389000000000000000E003E003E003E00300009C
:1038A000000000000000000000000000E003E00352
:1038B000E003E00300000000000000000000000042
:1038C00000000000000000000000E003E003E0034F
:1038D000E003000000000000000000000000000005
:1038E000E003E003E003E003E001E001E001C003E6
:1038F0008003000000000000000000000000030042
:103900000F003F00FC00F003C00F003F00FE003F2F
:10391000C00FF003FC003F000F0003000000000098
:103920000000000000000000000000000000000097
:1039300000000000000000000000FFFFFFFF00008B
:1039400000000000FFFFFFFF00000000000000007B
:103950000000000000000000000000000000000067
:1039600000000000000000E000F8007E801FE0077B
:10397000F8017E001F007E00F801E007801F007E36
:1039800000F800E000000000000000000000F01F50
:10399000FC3F3E381F381F381E001E003C007800D8
:1039A000F000E001C003C003C007C0070000000032
:1039B0000000C007C007C0070000000000000000B2
:1039C0000000F803FE0F1E1F0F3E7F3CFF78EF79CB
:1039D000C773C7F38FF38FF38FF39FF39FF3FF73D7
:1039E000FF7BF779003C1C1FFC0FF8030000000070
:1039F000000000000000000000000000E003E00301
:103A0000F007F007F007780F780F7C0E3C1E3C1E85
:103A10003E3CFE3FFF3F1F780F780FF007F007F0A6
:103A20000000000000000000000000000000000096
:103A3000F83FFC3F3E3C1E3C1E3C1E3C3E3C7C3C5A
:103A4000F03FF83F7E3C1F3C1F3C0F3C0F3C1F3CAF
:103A5000FE3FF83F000000000000000000000000F2
:103A600000000000FF01FF07871F003E003C007CB4
:103A700000780078007800780078007C007C003EB8
:103A8000003F831FFF07FF0100000000000000004F
:103A90000000000000000000F07FFC7F7E781F78AF
:103AA0001F780F780F780F780F780F780F780F78CE
:103AB0000F781F781E787E78F87FE07F0000000086
:103AC000000000000000000000000000FF3FFF3F7A
:103AD000003E003E003E003E003E003EFE3FFE3FF8
:103AE000003E003E003E003E003E003EFF3FFF3FE6
:103AF00000000000000000000000000000000000C6
:103B0000FF1FFF1F001E001E001E001E001E001EC5
:103B1000FF1FFF1F001E001E001E001E001E001EB5
:103B2000001E001E00000000000000000000000059
:103B300000000000FE03FF0F871F003E007C007C9A
:103B4000007800F800F87FF87FF80F780F7C0F7C82
:103B50000F3E8F1FFF0FFE0300000000000000005B
:103B600000000000000000001F7C1F7C1F7C1F7CE9
:103B70001F7C1F7C1F7C1F7CFF7FFF7F1F7C1F7CA7
:103B80001F7C1F7C1F7C1F7C1F7C1F7C0000000093
:103B9000000000000000000000000000FF3FFF3FA9
:103BA000E003E003E003E003E003E003E003E003FD
:103BB000E003E003E003E003E003E003FF3FFF3F37
:103BC00000000000000000000000000000000000F5
:103BD000FC1FFC1F7C007C007C007C007C007C00C7
:103BE0007C007C007C007C007C0078007800F83849
:103BF000F03FC03F00000000000000000000000097
:103C0000000000001F3C1E3C3C3C783CF03CE03D8A
:103C1000E03FC03F803FC03FE03FF03DF03C783C9C
:103C20007C3C3E3C1F3C0F3C0000000000000000BC
:103C30000000000000000000003E003E003E003E8C
:103C4000003E003E003E003E003E003E003E003E84
:103C5000003E003E003E003EFF3FFF3F00000000F0
:103C60000000000000000000000000001FF81FFC22
:103C70001FFC3FFE3FFE3FFE7FFF77FF77FFF7F71A
:103C8000E7F7E7F3E7F3C7F307F007F007F007F00C
:103C90000000000000000000000000000000000024
:103CA0000F7C0F7C0F7E0F7F0F7F8F7F8F7FCF7FEB
:103CB000EF7BEF79FF79FF78FF787F783F783F7867
:103CC0001F781F78000000000000000000000000C6
:103CD00000000000F007FC1F3E3E1F7C0F780F78AD
:103CE0000FF80FF80FF80FF80FF80FF80F780F789C
:103CF0001F7C3E3EFC1FF00700000000000000009B
:103D00000000000000000000FC3FFF3F1F3E0F3E90
:103D10000F3E0F3E0F3E1F3E3F3EFC3FF03F003E3A
:103D2000003E003E003E003E003E003E000000001F
:103D3000000000000000000000000000F007FC1F71
:103D40003E3E1F7C0F780F780FF80FF80FF80FF832
:103D50000FF80FF80F780F781F7C3E3EFC1FF80716
:103D60007C003F000F000300000000000000000086
:103D7000F03FFC3F7E3C3E3C1E3C1E3C3E3C3C3CFF
:103D8000FC3CF03FE03FF03DF83C7C3C3E3C1E3CC0
:103D90001F3C0F3C0000000000000000000000007D
:103DA00000000000FC07FE1F0E3E003C003C003CF3
:103DB000003EC01FF80FFE037F001F000F000F0022
:103DC0001F203E3CFC3FF01F0000000000000000F0
:103DD0000000000000000000FFFFFFFFE003E00321
:103DE000E003E003E003E003E003E003E003E003BB
:103DF000E003E003E003E003E003E0030000000071
:103E00000000000000000000000000000F7C0F7C9C
:103E10000F7C0F7C0F7C0F7C0F7C0F7C0F7C0F7C4A
:103E20000F7C0F7C0F7C1E3C1E3C3E3EFC1FF007AF
:103E30000000000000000000000000000000000082
:103E400007F007F007F80F780F7C1E3C1E3C1E3E63
:103E50003C1E3C1F781F780FF80FF007F007F007A3
:103E6000E003E0030000000000000000000000008C
:103E70000000000003E003F003F007F0E7F3E7F3CE
:103E8000E7F3E773F77BF77FFF7F7F7F7F7F7E7F9F
:103E90007E3F3E3E3E3E3E3E0000000000000000F1
:103EA000000000000000000007F80F7C1E3E3E3EB0
:103EB0003C1FF80FF007E007E003E003F007F80FFE
:103EC0007C0F7C1E3E3C1F780F780FF00000000036
:103ED00000000000000000000000000007F8077864
:103EE0000F7C1E3C1E3E3C1F780FF80FF007E003CE
:103EF000E003E003E003E003E003E003E003E003AA
:103F000000000000000000000000000000000000B1
:103F1000FF7FFF7F0F001F003E007C00F800F000D5
:103F2000E001E003C007800F000F001E003E007C90
:103F3000FF7FFF7F00000000000000000000FF077F
:103F40008007800780078007800780078007800739
:103F50008007800780078007800780078007800729
:103F6000800780078007800780078007FF07FF071B
:103F7000000000780078003C003C001E001E000F8E
:103F8000000F80078007C003C003E001E001F000DC
:103F9000F000780078003C003C001E001E000F007E
:103FA0000F0007000000F07FF000F000F000F000CC
:103FB000F000F000F000F000F000F000F000F00081
:103FC000F000F000F000F000F000F000F000F00071
:103FD000F000F000F07FF07F0000C000C001C001E1
:103FE000E003E003F007F0077807780F380F3C1E76
:103FF0003C1E1E3C1E3C0F380F7807780000000066
:1040000000000000000000000000000000000000B0
:1040100000000000000000000000000000000000A0
:104020000000000000000000000000000000000090
:104030000000000000000000FFFFFFFF0000000084
:104040000000F00000000000000000000000000080
:104050000000000000000000000000000000000060
:104060000000000000000000000000000000000050
:104070000000000000000000000000000000000040
:104080000000F80FFC3F7C3C3E003E003E00FE0777
:10409000FE1F3E3E3E7C3E783E7C7E7CFF3FCF1F37
:1040A00000000000000000000000003C003C003C5C
:1040B000003C003C003CF83DFE3F3E3F1F3E0F3CB5
:1040C0000F3C0F3C0F3C0F3C0F3C1F3C1E3C3E3F47
:1040D000FC3FF03B0000000000000000000000007A
:1040E00000000000000000000000FE03FF0F871F1B
:1040F000003E003E003C007C007C007C003C003E1A
:10410000003E871FFF0FFE030000000000000000BC
:1041100000001F001F001F001F001F001F00FF07DF
:10412000FF1F3F3E1F3C1F7C1F7C1F7C1F781F789A
:104130001F7C1F7C3F3C7F3EFF1FDF0F0000000005
:10414000000000000000000000000000000000006F
:104150000000F803FC0F3E1F1E3E1F3C1F7CFF7F2C
:10416000FF7F007C007C003C003E071FFF0FFE032A
:1041700000000000000000000000FF01E103C00398
:10418000C007C007C007FF7FFF7FC007C007C00789
:10419000C007C007C007C007C007C007C007C007E7
:1041A000C007C00700000000000000000000000081
:1041B00000000000000000000000EF07FF1F7F3E2E
:1041C0001F3C1F7C1F7C1F781F781F781F7C1F7C63
:1041D0003F3C7F3EFF1FDF0F1E001E001E007C388D
:1041E000F83F003C003C003C003C003C003CFC3DF7
:1041F000FE3F9E3F1F3F1F3E1F3C1F3C1F3C1F3C7E
:104200001F3C1F3C1F3C1F3C1F3C1F3C000000008C
:10421000000000000000F001F001000000000000BC
:104220000000E07FE07FE001E001E001E001E0016B
:10423000E001E001E001E001E001E001E001E00176
:1042400000000000000000000000F800F80000007E
:10425000000000000000F83FF83FF800F800F80008
:10426000F800F800F800F800F800F800F800F8008E
:10427000F800F800F800F800F000F071E07F003C72
:10428000003C003C003C003C003C1F3C3E3C7C3C75
:10429000F83CF03DE03DC03FC03FE03FF03DF83C22
:1042A0007C3C3E3C1F3C1F3C000000000000000026
:1042B0000000F07FF001F001F001F001F001F001E9
:1042C000F001F001F001F001F001F001F001F00166
:1042D000F001F001F001F001F001F0010000000038
:1042E00000000000000000000000000000000000CE
:1042F00000009EF7FFFFFFFFFFFFE7FBE7F9C7F1B5
:10430000C7F1C7F1C7F1C7F1C7F1C7F1C7F1C7F1ED
:10431000000000000000000000000000000000009D
:10432000000000000000FC3DFE3F9E3F1F3F1F3E7F
:104330001F3C1F3C1F3C1F3C1F3C1F3C1F3C1F3CA5
:104340001F3C1F3C000000000000000000000000B7
:1043500000000000000000000000F007FC1F3E3ECF
:104360001F3C1F7C0F780F780F780F780F781F7C19
:104370001F3C3E3EFC1FF007000000000000000054
:104380000000000000000000000000000000F83DF8
:10439000FE3F3E3F1F3E0F3C0F3C0F3C0F3C0F3C8F
:1043A0000F3C1F3C1E3E3E3FFC3FF83F003C003CA4
:1043B000003C003C003C0000000000000000000049
:1043C0000000EE07FE1F7E3E1E3C1E7C1E781E78FF
:1043D0001E781E781E781E7C3E7C7E3EFE1FDE0F01
:1043E0001E001E001E001E001E0000000000000037
:1043F0000000000000007F1FFF1FE71FC71F871F6F
:10440000001F001F001F001F001F001F001F001FB4
:10441000001F001F0000000000000000000000005E
:1044200000000000000000000000FC07FE1F0E1E40
:10443000003E003E003FE01FFC07FE003E001E0065
:104440001E003E3CFC3FF01F00000000000000008A
:104450000000000000000000800780078007FF7F49
:10446000FF7F80078007800780078007800780071D
:10447000800780078007C007FF03FF0100000000DE
:10448000000000000000000000000000000000002C
:1044900000001E3C1E3C1E3C1E3C1E3C1E3C1E3CA6
:1044A0001E3C1E3C1E3C3E3C7E3CFE3EFE1FDE0F84
:1044B00000000000000000000000000000000000FC
:1044C00000000000000007F00F780F781E3C1E3C33
:1044D0001E3E3C1E3C1E780F780FF00FF007F007D1
:1044E000E003E00300000000000000000000000006
:1044F0000000000000000000000003F0E3F1E3F31F
:10450000E7F3F7F3F7F3F77F777F7F7F7F7F7F7F97
:104510003E3E3E3E3E3E3E3E0000000000000000AB
:1045200000000000000000000000000000000F7C00
:104530001E3E3C3E3C1FF80FF007F007E003F0077B
:10454000F807F80F7C1E3E3E1F3C1F78000000005D
:10455000000000000000000000000000000000005B
:10456000000007F80F780F7C1E3C1E3C3C1E3C1ED2
:104570003C1F780FF80FF007F007E003E003C003DB
:10458000C003C0038007800F007F00000000000010
:10459000000000000000FF3FFF3F1F003E007C00C6
:1045A000F800F001E003C007800F001F001E003C70
:1045B000FF7FFF7F00000000000000000000FE0100
:1045C000E003C003C003C003C003E001E001E00159
:1045D000C001C003803F803FC003C001E001E00193
:1045E000E001C003C003C003C003E003FE017E007E
:1045F0000000C001C001C001C001C001C001C00174
:10460000C001C001C001C001C001C001C001C001A2
:10461000C001C001C001C001C001C001C001C00192
:10462000C001C0010000C03FE003E001E001E00183
:10463000E001C001C003C003C001E001FE00FE00B4
:10464000E001C001C003C003C001E001E001E001DE
:10465000E001E003C03F003F000000000000000058
:10466000000000000000000000000000000000004A
:10467000073FC77FE773FFF17EF0000000000000F6
:10468000000000000000000000000000000000002A
:10469000000000000000000000000000000000001A
:1046A000000000000000000000000000000000000A
:1046B00000000000000000000000000000000000FA
:1046C00000000000000000000000000000000000EA
:1046D00000000000000000000000000000000000DA
:1046E00000000000000000000000000000000000CA
:1046F00000000000000000000000000000000000BA
:1047000000000000000000000000000000000000A9
:104710000000000000000000000000000000000099
:104720000000000000000000000000000000000089
:104730000000000000000000000000000000000079
:104740000000000000000000000000000000000069
:104750000000000000000000000000000000000059
:1047600000003FF8600000000000000000000000B2
:10477000001FFFFFF000000000000000000000002C
:10478000007FFFFFC00000000000000000000000EC
:1047900005FFFFFFE4000000000000000000000033
:1047A0000FFFFFFF8000000000000000000000007D
:1047B0000F000FFF000000000000000000000000DC
:1047C000060000FF80000000000000000000000064
:1047D0001860001FF800000000000000000000004A
:1047E0003C7800078000000000000000000000008E
:1047F000306E00000000000000000000000000001B
:104800005073800000000000000000000000000065
:104810008000C00005FF0037F000001F800000018D
:104820000000FC0000000007FF8003F030000000E3
:104830000800380000000000BFFFFFE00400000196
:10484000900060000000000087FFFFFE00000001F4
:10485000E00060000000000001FFFFFFC00000005A
:104860004000600600000000001FFC00080000007F
:104870000000E006000010008000000000000000C2
:104880000000600600003001800000000000000011
:10489000000070060000300700000000000000006B
:1048A00000007FC60000E00F0000000000000000D4
:1048B000000F81CC0010E038000000000000000074
:1048C000000FC0088600006000000000000000002B
:1048D000001FF620000021C00000000000000000C2
:1048E000001FC000000000000000000000000000E9
:1048F000003E000000000401000000000000000075
:1049000000F8000000004800000000000000000067
:1049100001F0000000007000000000000000000036
:10492000072000000000F0007800000000000000F8
:104930003C3800000000F00078000000000000009B
:10494000783000000001C000780000000000000185
:10495000E000000000038000700000000000000381
:10496000C000000000060000700000000000000011
:1049700000000000001C00003000000000000000EB
:1049800000000000003C00003000000000000000BB
:10499000000000000078000070000000000000002F
:1049A0000000000001E00000F00000000000000036
:1049B0000000000003C00003F00000000000000041
:1049C000000000000600000780000000000000005A
:1049D00000000000000000000000000000000000D7
:1049E00000000000000000000000000000000000C7
:1049F00000000000000000000000000000000000B7
:104A000000000000000000000000000000000000A6
:104A10000000000000000000000000000000000096
:104A20000000000000000000000000000000000086
:104A30000000000000000000000000000000000076
:104A40000000000000000000000000000000000066
:104A50000000000000000000000000000000000056
:104A60000000000000000000000000000000000046
:104A70000000000000000000000000000000000036
:104A80000000000000000000000000000000000026
:104A90000000000000000000000000000000000016
:104AA0000000000000000000000000000000000006
:104AB00000000000000000000000000000000000F6
:104AC00000000000000000000000000000000000E6
:104AD00000000000000000000000000000000000D6
:104AE00000000000000000000000000000000000C6
:104AF00000000000000000000000000000000000B6
:104B000000000000000000000000000000000000A5
:104B10000000000000000000000000000000000095
:104B20000000000000000000000000000000000085
:104B30000000000000000000000000000000000075
:104B40000000000000000000000000000000000065
:104B50000000000000000000000000000000000055
:104B60000000207FE00000000000000000000000C6
:104B7000003FE7FFEC000000000000000000000024
:104B800001FFFFF80000000000000000000000002E
:104B900001FFFFF9C000000000000000000000005D
:104BA00001FBFFFFF8000000000000000000000013
:104BB00001C21FFFFE000000000000000000000016
:104BC00003DF8BFFE1000000000000000000000098
:104BD0000F8E00FFF8000000000000000000000041
:104BE0000F8F001FC0000000000000000000000048
:104BF0001E0F000300000000031FF0000000000073
:104C000010838000C00380E01FFFFF8000000000D1
:104C10002021C0003C78001FFFFFFFE000000000E3
:104C20004180E00000000007FFFFFFF800000000E7
:104C3000740060000000C0020001FFFE00000000E0
:104C40003C0030000000C00200000FFF0000000028
:104C5000180010000400C002000001FFF000000076
:104C600000001FFFFF01807E0000003FE000000009
:104C700000003FFEFF8180FE00000003F8000000FE
:104C800000004600C001800C000000000000000091
:104C900000004600C001C03000000000000000001D
:104CA00000006600C003C18000000000000000009A
:104CB0000001F618600DF100000000000000000087
:104CC000003EFFFF6770B900000000000000000018
:104CD000001FCFE06F80598000000000000000003E
:104CE00000181FC080005F8000000000000000006E
:104CF000001800C300007FC000000000000000009A
:104D0000000C008C0000FFC000000000000000004C
:104D1000000E03E0001FFC00000000000000000087
:104D2000000FE380003EFC000000000000000000D7
:104D30000003E3C1307070000000000000000000BC
:104D40000000203FFCE0E000000000000000000048
:104D50000000000380E1800000000000000000006F
:104D600000000000008700000000000000000000BC
:104D700000000000001E0000000000000000000015
:104D800000000000007C00000000000000000000A7
:104D90000000000000E00000000000000000000033
:104DA0000000000003C00000000000000000000040
:104DB00000000000000000000000000000000000F3
:104DC00000000000000000000000000000000000E3
:104DD00000000000000000000000000000000000D3
:104DE00000000000000000000000000000000000C3
:104DF00000000000000000000000000000000000B3
:104E000000000000000000000000000000000000A2
:104E10000000000000000000000000000000000092
:104E20000000000000000000000000000000000082
:104E30000000000000000000000000000000000072
:104E40000000000000000000000000000000000062
:104E50000000000000000000000000000000000052
:104E60000000000000000000000000000000000042
:104E70000000000000000000000000000000000032
:104E80000000000000000000000000000000000022
:104E90000000000000000000000000000000000012
:104EA0000000000000000000000000000000000002
:104EB00000000000000000000000000000000000F2
:104EC00000000000000000000000000000000000E2
:104ED00000000000000000000000000000000000D2
:104EE00000000000000000000000000000000000C2
:104EF00000000000000000000000000000000000B2
:104F000000000000000000000000000000000000A1
:104F10000000000000000000000000000000000091
:104F20000000000000000000000000000000000081
:104F30000000000000000000000000000000000071
:104F40000000000000000000000000000000000061
:104F50000000000000000000000000000000000051
:104F600000003FF8600000000000000000000000AA
:104F7000001FFFFFF0000000000000000000000024
:104F8000007FFFFFC00000000000000000000000E4
:104F900005FFFFFFE400000000000000000000002B
:104FA0000FFFFFFF80000000000000000000000075
:104FB0000F000FFF000000000000000000000000D4
:104FC000060000FF8000000000000000000000005C
:104FD0001860001FF8000000000000000000000042
:104FE0003C78000780000000000000000000000086
:104FF000306E000000000000000000000000000013
:10500000507380000000000000000000000000005D
:105010008000C00005FF0037F000001F8000000185
:105020000000FC0000000007FF8003F030000000DB
:105030000800380000000000BFFFFFE0040000018E
:10504000900060000000000087FFFFFE00000001EC
:10505000E00060000000000001FFFFFFC000000052
:105060004000600600000000001FFC000800000077
:105070000000E006000010008000000000000000BA
:105080000000600600003001800000000000000009
:105090000000700600003007000000000000000063
:1050A00000007FC60000E00F0000000000000000CC
:1050B000000F81CC0010E03800000000000000006C
:1050C000000FC00886000060000000000000000023
:1050D000001FF620000021C00000000000000000BA
:1050E000001FC000000000000000000000000000E1
:1050F000003E00000000040100000000000000006D
:1051000000F800000000480000000000000000005F
:1051100001F000000000700000000000000000002E
:10512000072000000000F0007800000000000000F0
:105130003C3800000000F000780000000000000093
:10514000783000000001C00078000000000000017D
:10515000E000000000038000700000000000000379
:10516000C000000000060000700000000000000009
:1051700000000000001C00003000000000000000E3
:1051800000000000003C00003000000000000000B3
:105190000000000000780000700000000000000027
:1051A0000000000001E00000F0000000000000002E
:1051B0000000000003C00003F00000000000000039
:1051C0000000000006000007800000000000000052
:1051D00000000000000000000000000000000000CF
:1051E00000000000000000000000000000000000BF
:1051F00000000000000000000000000000000000AF
:10520000000000000000000000000000000000009E
:10521000000000000000000000000000000000008E
:10522000000000000000000000000000000000007E
:10523000000000000000000000000000000000006E
:10524000000000000000000000000000000000005E
:10525000000000000000000000000000000000004E
:10526000000000000000000000000000000000003E
:10527000000000000000000000000000000000002E
:10528000000000000000000000000000000000001E
:10529000000000000000000000000000000000000E
:1052A00000000000000000000000000000000000FE
:1052B00000000000000000000000000000000000EE
:1052C00000000000000000000000000000000000DE
:1052D00000000000000000000000000000000000CE
:1052E00000000000000000000000000000000000BE
:1052F00000000000000000000000000000000000AE
:10530000000000000000000000000000000000009D
:10531000000000000000000000000000000000008D
:10532000000000000000000000000000000000007D
:10533000000000000000000000000000000000006D
:10534000000000000000000000000000000000005D
:10535000000000000000000000000000000000004D
:105360000000000600000000000000000000000037
:1053700000000FFFB000000000000000000000006F
:10538000007FFFFC000000000000000000000000A3
:1053900001FFFFF81FC00000000000000000000037
:1053A0000FFFFFFFF80000000000000000000000F9
:1053B0001FE01FFFC0000000000000000000000010
:1053C0001E83887F800000000000000000000000B5
:1053D0003C00000FF0000000000000000000000092
:1053E000F8FA000387000000000000000000000041
:1053F000F8FE0000C00000000000000000000001F6
:10540000E0E706003000000000000000FF0000019F
:105410000003CE0007800FF7FFF0000FFC00000232
:105420000200DC00007FC007FFFFF1FF80000004E6
:105430001800780000000000DFFFFFFC00000007FC
:10544000400030000000000043FFFFF000000003B8
:10545000C000200004001800603FFF800000000131
:1054600080005FFFFF00187FA003E0000000000045
:1054700000007FEFFF801CFFA00000000000000084
:105480000000601C00000C00600000000000000034
:1054900000003F1800000E00E000000000000000C7
:1054A000003FC03800000601E000000000000000DE
:1054B0000078003C0005FE21A00000000000000074
:1054C00000E3FCA3E7F01FFFD00000000000000095
:1054D00001803F80180001830800000000000000E8
:1054E00003004200000000C30600000000000000AE
:1054F0000F00C40000000023FCF0000000000000CA
:105500001E0090000000001103F0000000000000E9
:105510001C0120000000000D00F800000000000049
:105520007C018000000000078038000000000000BF
:105530007003800000000007C01800000000000099
:105540000007000000000007C00C00000000000081
:10555000000E000000000007C00C0000000000006A
:10556000001C000000000007800E0000000000008A
:105570000038000000000007000E000000000000DE
:10558000007000000000000E000E0000000000008F
:1055900001E000000000001E000E000000000000FE
:1055A000078000000000003C001E0000000000001A
:1055B00000000000000001FC003E000000000000B0
:1055C0000000000000000F80003800000000000014
:1055D0000000000000001F000000000000000000AC
:1055E00000000000000000000000000000000000BB
:1055F00000000000000000000000000000000000AB
:10560000000000000000000000000000000000009A
:10561000000000000000000000000000000000008A
:10562000000000000000000000000000000000007A
:10563000000000000000000000000000000000006A
:10564000000000000000000000000000000000005A
:10565000000000000000000000000000000000004A
:10566000000000000000000000000000000000003A
:10567000000000000000000000000000000000002A
:10568000000000000000000000000000000000001A
:10569000000000000000000000000000000000000A
:1056A00000000000000000000000000000000000FA
:1056B00000000000000000000000000000000000EA
:1056C00000000000000000000000000000000000DA
:1056D00000000000000000000000000000000000CA
:1056E00000000000000000000000000000000000BA
:1056F00000000000000000000000000000000000AA
:105700000000000000000000000000000000000099
:105710000000000000000000000000000000000089
:105720000000000000000000000000000000000079
:105730000000000000000000000000000000000069
:105740000000000000000000000000000000000059
:105750000000000000000000000000000000000049
:105760000000000000000000000000000000000039
:105770000000000000000000000000000000000029
:10578000007FF01DC00000000000000000000000CD
:105790001FFFFFFF000000000000000000000000ED
:1057A0001FFFFFFFF00000000000000000000000ED
:1057B0001F803FFFFFC0000000000000000000004D
:1057C0001E8388FFE00000000000000000000000D1
:1057D00078C0001FF800000000000000000000007A
:1057E000F1E20003E60000000000000000000001FC
:1057F000F1F800006000000000000000000000035D
:10580000418F0C001800000000000000000000069E
:1058100000038C0007800001FFFF80000800000CDF
:105820000200F800000FC03FFFFFF0183000000E2C
:105830004000300000000000FFFFFFE1C000000F4B
:1058400080003000000000003FFFFFFF0040000725
:105850008000200004000000103FFFFE1E0000003A
:1058600000005FFDFF00007FF000FFFFE000000090
:1058700000007FEFFF8000FFF0000000000000004C
:105880000000401C000000001000000000000000AC
:1058900000007018000001801800000000000000E7
:1058A00000006030000001801800000000000000CF
:1058B0000001807E0000F1C01C000000000000001C
:1058C0000007FFFDF5FE0FFFEE00000000000000E6
:1058D0000028FBE80E0000100F8000000000000010
:1058E000007E01080000000C070E00000000000010
:1058F00001E001100000000303FF000000000000B1
:10590000070001100000000041CF0000000000006F
:105910003C0001900000000011E380000000000145
:10592000F80000A00000000007E1C0000000000730
:10593000E00000E00000000003E0E0000000001FC5
:10594000000000E00000000001E070000000000026
:10595000000000E00000000000E03C00000000004B
:10596000000000C00000000000E00FC000000000C8
:10597000000000C00000000000E007E000000000A0
:105980000000008000000000007000E00000000047
:105990000000018000000000007000000000000016
:1059A00000000180000000000078000000000000FE
:1059B000000003800000000003C0000000000000A1
:1059C00000001F00000000000F00000000000000A9
:1059D00000003E00000000001F000000000000006A
:1059E00000000000000000000000000000000000B7
:1059F00000000000000000000000000000000000A7
:105A00000000000000000000000000000000000096
:105A10000000000000000000000000000000000086
:105A20000000000000000000000000000000000076
:105A30000000000000000000000000000000000066
:105A40000000000000000000000000000000000056
:105A50000000000000000000000000000000000046
:105A60000000000000000000000000000000000036
:105A70000000000000000000000000000000000026
:105A80000000000000000000000000000000000016
:105A90000000000000000000000000000000000006
:105AA00000000000000000000000000000000000F6
:105AB00000000000000000000000000000000000E6
:105AC00000000000000000000000000000000000D6
:105AD00000000000000000000000000000000000C6
